:020000040800F2
:10000000F8670020450100080D1600084D1500088E
:1000100083150008350800081B27000800000000B1
:10002000000000000000000000000000F51C0008B7
:10003000110B000800000000D1170008F51F000890
:100040005F0100085F0100085F010008FD1900085A
:100050005F0100085F0100085F0100085F01000800
:100060005F0100085F0100085F0100085F010008F0
:100070005F0100085F0100085F0100085F010008E0
:100080005F0100085F0100085F0100085F010008D0
:100090005F0100085F0100085F0100085F010008C0
:1000A0005F0100085F0100085F0100085F010008B0
:1000B000F52000085F0100085F0100085F010008EB
:1000C0005F0100085F0100085F0100085F01000890
:1000D0005F0100085D230008C52300080D24000807
:1000E0005F0100085F0100085F0100085F01000870
:1000F0005F0100085F0100085F0100085F01000860
:100100005F0100085F0100085F0100085F0100084F
:10011000C9220008152300085F0100085F010008DC
:100120005F0100085F0100085F0100085F0100082F
:10013000DFF80CD000F010FB004800473D37000806
:10014000F86700200648804706480047FEE7FEE7BC
:10015000FEE7FEE7FEE7FEE7FEE7FEE7FEE7FEE777
:10016000692000083101000840EA01039B0703D021
:1001700009E008C9121F08C0042AFAD203E011F8E6
:10018000013B00F8013B521EF9D27047D2B201E0A8
:1001900000F8012B491EFBD270470022F6E710B58C
:1001A00013460A4604461946FFF7F0FF204610BDE5
:1001B000034611F8012B00F8012B002AF9D118464B
:1001C00070472DE9FE4F81EA030404F0004421F05A
:1001D000004100944FF0000B23F0004350EA01046B
:1001E0005ED052EA03045BD0C3F30A54C1F30A554C
:1001F0002C44A4F2F3340194A0FB0254C1F3130184
:1002000041F48011C3F3130343F4801301FB024450
:1002100000FB034E840A970A44EA815447EA835755
:10022000A4FB076802958D0A05FB07854FEA932C0E
:1002300004FB0C542705029D4FEA065847EA16377F
:10024000B5EB08056EEB070C870E920E47EA811797
:1002500042EA8312A7FB0201B6EB0B0164EB000438
:100260002B0D43EA0C335E1844EB1C50DA46514622
:10027000E7FB0201C5F313044FEA0B3343EA1453BF
:100280004FEA0432019C43EA0603A4F10C040294F1
:10029000009CCDE900B400F0CBF803B0BDE8F08FCE
:1002A00000200146F9E7C10F80EAE0700844CA0760
:1002B0009623002100F07FB800F0004230F00040AB
:1002C0000AD0C10D01F56071C0F3160042EA015178
:1002D000C20840071143704700200146704701F0F3
:1002E000004330B421F0004150EA010206D00A0D6B
:1002F000A2F56072C1F31301002A02DC30BC0020B9
:100300007047440F44EAC104C100E01830BC00EB60
:10031000C25000F047B830B50B46014600202022FD
:10032000012409E021FA02F59D4205D303FA02F502
:10033000491B04FA02F52844151EA2F10102F1DC62
:1003400030BD2DE9F05F0546002092469B46884669
:100350000646814640241BE0284641464746224641
:1003600000F01BFA53465A46C01A914110D3114669
:100370001846224600F002FA2D1A67EB01084F4694
:1003800022460120002100F0F9F917EB00094E4147
:10039000201EA4F10104DFDC484631462A464346CC
:1003A000BDE8F09F0029A8BF7047401C490008BF66
:1003B00020F00100704710B4B0FA80FC00FA0CF095
:1003C00050EA010404BF10BC704749B1CCF12004CD
:1003D00021FA04F411FA0CF118BF0121214308435A
:1003E000A3EB0C01CB1D4FEA00614FEA102042BF86
:1003F000002010BC704700EBC35010440029A4BF7C
:1004000010BC7047401C490008BF20F0010010BC20
:10041000704710B5141E73F1000408DA401C41F156
:10042000000192185B411A4301D120F0010010BD78
:100430002DE9F04D92469B4611B1B1FA81F202E0EE
:10044000B0FA80F22032904600F098F904460F4648
:1004500040EA0A0041EA0B0153465A46084313D0CA
:10046000114653EA010019D0C8F14002504600F08D
:1004700094F905460E4650465946424600F07EF92C
:10048000084305D0012004E020463946BDE8F08D40
:100490000020054346EAE0762C4337430A9863057B
:1004A000E40AA0EB08000022FD0A44EA47540A309F
:1004B00002D500200146E9E7010510196941DDE98F
:1004C000084500196941BDE8F04DA2E72DE9FE4F4E
:1004D000804681EA0300C00F0C46009021F00041E5
:1004E00023F00045B8EB0200A94105D24046214661
:1004F00090461C460B46024623F00040104347D06E
:10050000270DC7F30A00C3F30A510290401A019065
:1005100040286BDAC3F3130040F4801B0098924626
:1005200020B10023D2EB030A63EB0B0B0198594671
:10053000C0F14002504600F021F906460D465046F3
:100540005946019A00F039F910EB08006141002486
:1005500087EA115284EAE7731A4340D0009A62B3E3
:10056000019A012A4FEA075215DC001B61EB0201D8
:100570004FF0004202EA0752CDE90042001C41F56B
:10058000801132462B46FFF753FF03B0BDE8F08FD2
:1005900040462146F9E7001B61EB0201001C41F5D2
:1005A000801300185B412018A2F5001747EB0301E8
:1005B00040EAD570B6196D4111E06D084FEA360674
:1005C00045EAC0754FEA0752001B61EB0201001CAF
:1005D00041F5801149084FEA300000195141324677
:1005E0002B4603B0BDE8F04FFFF713BF0098012280
:1005F00040000023D0EB020263EBE0730098214639
:100600004FEAE074B8EB000061EB0401E9E783F026
:1006100000435BE781F0004158E72DE9F04D81EAA6
:10062000030404F0004B21F0004514464FF0000A8B
:1006300023F0004150EA050220D054EA01021DD007
:10064000C5F30A570246C5F31303C1F31300C1F300
:100650000A5640F4801543F48013A7EB0608101BDC
:10066000D64608F2FD3873EB050002D308F1010805
:1006700001E092185B41B8F1000F03DA0020014657
:10068000BDE8F08D00204FF48011064684460EE050
:10069000171B73EB050705D3121B63EB050306431A
:1006A0004CEA010C49084FEA300092185B4150EACD
:1006B0000107EDD152EA030012D082EA040083EA76
:1006C0000501084305D0101BAB4106D201220023CF
:1006D00006E000224FF0004302E06FF001025310E9
:1006E0001AEB06004CEB085110EB0A0041EB0B0132
:1006F000BDE8F04DFFF78DBEC1F30A52C1F31301FF
:1007000040F2FF3341F480119A4202DA00200146A0
:10071000704740F233439A42A2F2334202DC524223
:1007200000F03BB800F02AB830B5041E71F10004A7
:1007300004DB4FF00044404264EB0101141E73F1EE
:10074000000405DB1C464FF00043524263EB0403F8
:10075000994208BF904230BD064C074D06E0E06864
:1007600040F0010394E8070098471034AC42F6D3F8
:10077000FFF7E2FC883E0008A83E0008202A04DBC0
:10078000203A00FA02F1002070479140C2F12003A4
:1007900020FA03F3194390407047202A04DB203AE3
:1007A00021FA02F00021704721FA02F3D040C2F191
:1007B00020029140084319467047202A06DBCB17D8
:1007C000203A41FA02F043EAE07306E041FA02F30C
:1007D000D040C2F12002914008431946704770B5DD
:1007E0008C1810F8015B15F0070301D110F8013BDC
:1007F0002A1106D110F8012B03E010F8016B01F863
:10080000016B5B1EF9D12B0705D40023521E0DD4BA
:1008100001F8013BFAE710F8013BCB1A921C03E008
:1008200013F8015B01F8015B521EF9D5A142D8D340
:10083000002070BD00BFFEE708B500200090022038
:100840000349086000226946412001F054FA08BDBE
:100850009800002008B5002000900320034908609C
:10086000002269463B2001F046FA08BD98000020AE
:100870001CB500200E490860FF208DF80000012003
:100880008DF8010042F22220ADF802000020ADF800
:100890000400ADF8040045208DF8060007226946E3
:1008A000002003F0ADF9002003F042F91CBD000068
:1008B0009800002008B5002000900120054908603C
:1008C00005A1002001F004F900226946672001F02B
:1008D00012FA08BD98000020737461727420677961
:1008E000726F2063616C6962210D0A0070B5044665
:1008F0000D462A462146032003F082F9032003F027
:1009000017F970BD70B588B000250026032000F0EF
:1009100075FC012844D1032000F0F2F8032003F015
:1009200075F8C4B2062C38DB202C36DC224669462A
:10093000032003F09BF89DF80000902829D19DF832
:100940000100502823D19DF80600FF281ED1002069
:100950000DE0811C1DF8011001F00F010D4303286B
:1009600003D04FF6FF7101EA0515411CC8B20428F7
:10097000EFDB284600F0FEFB0646304601F0A4FE01
:100980002B46324607A1002001F0A2F800E000BF8C
:1009900006E0032003F01AF802E0032003F016F843
:1009A00008B070BD4F70746963616C5A6F6F6D3DB4
:1009B00025647820707172733D253034580D0A001B
:1009C00010B505210148FFF791FF10BDEA00002096
:1009D0007CB506460C46B6F5804F2CD00BDC042EB9
:1009E00061D0B6F5106F68D0B6F5306F60D0B6F54F
:1009F000005F67D109E0B6F5A04F37D0B6F5C04F1C
:100A00002FD0B6F5E04F5DD148E0072C04DD06217C
:100A10002E48FFF76BFF0DE02DA103C9CDE90001C2
:100A200004F12000C0B28DF8040006216846FFF7EB
:100A30005DFF00BF47E0072C04DD06212648FFF7D5
:100A400055FF0DE025A103C9CDE9000104F13000F7
:100A5000C0B28DF8040006216846FFF747FF00BFCB
:100A600031E006211F48FFF741FF2CE01E2C00DD7E
:100A700029E0601E1C4931F81050280B1B490871F1
:100A8000C5F303204871C5F30310887105F00F000A
:100A9000C87109211548FFF729FF14E00521144802
:100AA000FFF724FF0FE007211248FFF71FFF0AE0BE
:100AB00007211148FFF71AFF05E007210F48FFF74C
:100AC00015FF00E000BF00BF7CBD0000DE0000207D
:100AD0008101040720FF0000E400002081010407D9
:100AE00030FF0000D80000209C000020EF00002014
:100AF000EA000020FF000020060100200D01002078
:100B00000021024A02EB001251737047D402002008
:100B100070470000002809DD022807DC002900DDFD
:100B2000012100F10F02024B23F812107047000060
:100B30002A020020F0B585B0002000F05FFB0128FC
:100B400070D10020FFF7DCFF002002F05FFF0446B9
:100B5000072C67D300BF0025072202A9002002F05E
:100B600085FF9DF80800FF2876D1012005E002A945
:100B7000095C2944CDB2411CC8B20528F7D9EDB2B1
:100B80009DF80E00A84268D101F0ABF9DDE9020141
:100B9000CDE90001BDF80200B0F5005F7ED023DC96
:100BA000B0F5806F7BD00DDC042879D004DC002800
:100BB00077D0012876D1A8E0112874D0B0F5007F55
:100BC000F8D186E0B0F5106F6ED006DCB0F5E06FBE
:100BD0006BD0B0F5006FEDD140E0B0F5306F75D05F
:100BE000B0F5805FE6D149E0B0F5C04F6FD01ADCB8
:100BF00043F23332A0EB0201904269D00ADCA0F547
:100C00000850A0F12200002873D0A0F6DE50002882
:100C1000D0D13BE1A1F6CD4100296BD0B1F5805F89
:100C2000C8D1FCE068E147F27772811A90427DD02A
:100C30000ADCA0F5CC40A0F16600002877D0A0F631
:100C40009A100028B6D1F7E0A1F6890100297CD0DE
:100C5000B1F5807FAED1A8E041E13CE14FF4AA605C
:100C6000A649088008460188022001F07FF8A348C1
:100C70000288A3A1002000F02BFF2BE14FF42C7081
:100C80009E49088008460188022001F06FF89B48C1
:100C900002889BA1002000F01BFF1BE199E005E00A
:100CA000D4E02BE015E16CE0E5E024E04FF4AA602D
:100CB0009849088008460188042001F057F89548B3
:100CC000028895A1002000F003FF03E1C8E09AE04C
:100CD000DDE04FF42C708F4908800846018804201D
:100CE00001F044F88B4802888BA1002000F0F0FE50
:100CF000F0E0D2E07AE000F017FCEBE001F0C6F89B
:100D00004FF47A7001F00BFDE4E00121874800F018
:100D100021FA0B228649022002F072FF022002F023
:100D200007FFC82002F03AFB0B2202E0CEE0B7E05A
:100D30000BE08049022002F063FF022002F0F8FE7F
:100D400001217A4800F004FAC4E00121774800F05C
:100D500001FA0B227849022002F052FF022002F031
:100D6000E7FEC82002F01AFB0B227449022002F0B1
:100D700047FF022002F0DCFE01216C4800F0E8F998
:100D8000A8E00121694800F0E5F905226C4902203C
:100D900002F036FF022002F0CBFE322002F0FEFA13
:100DA0000121624800F0D4F994E001215F4800F08D
:100DB000D1F905226349022002F022FF022002F04D
:100DC000B7FE322002F0EAFA0121584800F0C0F9DB
:100DD00080E0BDF804104FF40050FFF7F9FDBDF8B6
:100DE000042059A1002000F073FE73E0BDF8041048
:100DF0004FF48040FFF7ECFDBDF8042056A1002021
:100E000000F066FE66E000214FF4C040FFF7E0FD11
:100E100055A1002000F05CFEFFF7D2FD5AE0BDF8BE
:100E200004104FF4A040FFF7D3FDBDF8042052A1F9
:100E3000002000F04DFE4DE000214FF4E040FFF7B0
:100E4000C7FD52A1002000F043FE43E0BDF80410AE
:100E50000420FFF7BDFD51A1002000F039FE39E06C
:100E6000BDF804104FF43060FFF7B2FD4EA1002032
:100E700000F02EFE2EE0BDF804104FF41060FFF7D6
:100E8000A7FD4DA1002000F023FE23E022E000F0AA
:100E900068F901204C4908701CE0FFF70BFD19E0D0
:100EA0009DF8010040B2BDF8041049B200FB01F604
:100EB0009DF8010040B2BDF80410090A49B200FBD8
:100EC00001F73946304600F05FFB03E000F080FB9D
:100ED00000E000BF06E0002002F078FD02E0002004
:100EE00002F074FD002002F091FD0446072C03D3AC
:100EF0000020FFF705FE2EE605B0F0BD7D000020C6
:100F000050697463685F4368616E6E656C3A25640E
:100F10000D0A0000750000205961775F4368616E1B
:100F20006E656C3A25640D0A00000000000C01405B
:100F300038000020430000204E000020590000200F
:100F400064000020690000205A4F4F4D5F494E3A1F
:100F500025640D0A000000005A4F4F4D5F4F555455
:100F60003A25640D0A0000005A4F4F4D5F53544F0D
:100F700050210D0A000000005A4F4F4D5F544F5F43
:100F8000504F533A25640D0A000000005A4F4F4D50
:100F90005F504F535F515259210D0A00504943543D
:100FA000555245210D0A00005245434F52445F53AC
:100FB00054415254210D0A005245434F52445F534D
:100FC000544F50210D0A0000740000200EB501217D
:100FD000042000F075FC0121082000F071FC0121C3
:100FE000102000F06DFC0121084600F069FC4FF470
:100FF0000060ADF8000018200290032001906946BF
:10100000074800F011F82120ADF8000010200290F0
:10101000032001906946034800F006F80EBD000069
:1010200000080140000C01402DE9F0410246002576
:101030000026002000230024002791F808C00CF0AF
:101040000F0591F808C00CF0100CBCF1000F03D094
:10105000D1F804C04CEA050591F800C0BCF1000FBE
:1010600031D0146800202BE04FF0010C0CFA00F393
:10107000B1F800C00CEA03069E4220D183004FF075
:101080000F0C0CFA03F7BC4305FA03FC4CEA04040A
:10109000D1F808C0BCF1280F06D14FF0010C0CFAB2
:1010A00000FCC2F814C00AE0D1F808C0BCF1480F37
:1010B00005D14FF0010C0CFA00FCC2F810C0401C26
:1010C0000828D1D31460B1F800C0BCF1FF0F34DDA3
:1010D000546800202EE000F1080C4FF0010808FAD7
:1010E0000CF3B1F800C00CEA03069E4221D1830044
:1010F0004FF00F0C0CFA03F7BC4305FA03FC4CEA63
:101100000404D1F808C0BCF1280F05D100F1080C87
:1011100008FA0CF8C2F81480D1F808C0BCF1480FE6
:1011200007D100F1080C4FF0010808FA0CF8C2F8DA
:101130001080401C0828CED35460BDE8F0810246E0
:101140000020D3680B400BB1012000E00020704765
:1011500041617047016170470AB1016100E041617E
:10116000704708B500200090002269463D2000F03D
:10117000C2FD08BD10B50246002109E01E4830F846
:101180001100904202D1481CC0B210BD481CC1B22F
:101190001E29F3DB0020014629E0174830F8110032
:1011A000904221DA144B481C33F8100090421BDDAA
:1011B000184630F81100131A0F4C481C34F8100070
:1011C000801A834202DA481CC0B2DEE70A4830F8CF
:1011D0001100131A084C481C34F81000801A83427E
:1011E00002DB881CC0B2D0E7481CC0B201461D29F2
:1011F000D3DB00BFC9E700009C0000200146024885
:1012000000EB0110407B7047D402002006490968BA
:10121000016005490831096841600349091D0968F1
:1012200081600021C1607047E8F7FF1F7FB5054668
:101230000E4640F2333402208DF80000ADF8054030
:10124000ADF80140ADF809400020ADF80300ADF85D
:101250000750ADF80B600D226946432000F04BFDAE
:1012600040F2DC5002F09AF8002400208DF80000D3
:10127000ADF80540ADF80140ADF809400D226946D2
:10128000432000F038FD7FBD2DE9F04FEFB0002086
:101290006D906C906B906A9080214AA8FEF77DFF5C
:1012A0004FF0000B0220FFF7A9FF01287DD102209B
:1012B000FFF726FC022002F0A9FB00F0FF0ABAF1BA
:1012C000040F72D952460AA9022002F0CFFB0AACE1
:1012D000A07861780844E1788842E7D1002007E0EF
:1012E0000AAA011D515C594401F0FF0B411CC8B210
:1012F000A1788142F4DCA078001D0AA9085C584559
:10130000D4D160783D2802D043287DD18CE00DF106
:101310002C09B9F800005C490880D9F8040048603D
:10132000B9F812004882D9F81600C1F81600B9F8C9
:1013300024008884D9F828008862B1F91200FEF7E9
:10134000B2FF0990FEF7B8FF074600224F4BFEF7A9
:1013500038FF0546FEF7C3FF6D904B49D1F81600E4
:10136000FEF7A1FF0990FEF7A7FF05460022474BB5
:10137000FEF727FF0746FEF7B2FF6B904249B1F92F
:101380002400FEF790FF0990FEF796FF0546002225
:101390003E4BFEF716FF0746FEF7A1FF6C903A4959
:1013A000886AFEF780FF099000E06AE0FEF784FF9C
:1013B00005460022354BFEF704FF0746FEF78FFF78
:1013C0006A906A98FEF778FF05460E466C98FEF71D
:1013D00073FF074688466B98FEF76EFFCDE908015C
:1013E0006D98FEF769FFCDE90278CDE90456CDE9A5
:1013F0000601DDE90801CDE9000125A14AA8DDE9E2
:10140000062301F057FB00E034E04AAA30A1002097
:1014100000F05EFB2F480078012804D101F004F9A8
:1014200000202C4908702BE02B480068012804D0CC
:1014300002280CD003281BD113E0A078022805D184
:1014400026A1002000F044FBFFF7F6F910E0A07899
:10145000022805D126A1002000F03AFBFFF7FAF997
:1014600006E0FFF705FA27A1002000F031FB00BFDE
:1014700000BF05E04AAA27A1002000F029FB00BF19
:1014800000BF6FB0BDE8F08F4E0200200080963F95
:10149000506974636820696D753A25302E32662C68
:1014A00050697463682073723A25302E32662C209E
:1014B00059617720696D753A25302E32662C596155
:1014C000772073723A25302E32660D0A0000000034
:1014D000257300007400002098000020737461726E
:1014E00074206163632063616C6962210D0A0000EE
:1014F0007374617274206D61672063616C6962212D
:101500000D0A0000706F642063616C6962206F6B6C
:10151000210D0A006E6F7420737570706F727420E5
:10152000636D64210D0A000010B5074A928C064BCA
:101530001B8DD21A11B2044A528A034BDB8AD21A8B
:1015400010B2FFF773FE10BD4E02002000BFFEE791
:1015500010B500214FF0006000F008F90121C80229
:1015600000F0AEF9FFF732FD01F032FF01F072FF3B
:1015700001F0C0FF02F016F802F068F800F0A4FDD8
:1015800010BD00BFFEE700007FB505460E46A32450
:1015900002208DF80000ADF80540ADF80140ADF82F
:1015A00009400020ADF803000848408A284400B2F2
:1015B000ADF807000548808C304400B2ADF80B0050
:1015C0000D226946432000F096FB7FBD4E020020AD
:1015D0001FB5002400208DF80000ADF80540ADF8DF
:1015E0000140ADF80940ADF803000748408AADF866
:1015F00007000548808CADF80B000D22694643209A
:1016000000F079FB1FBD00004E02002070471CB5A2
:101610004FF4E06000F0A0F825208DF800000020D5
:101620008DF8020001200190684600F05DF84FF44B
:10163000E06000F091F826208DF8000002208DF87F
:10164000020001200190684600F04EF84FF4E0607F
:1016500000F082F827208DF8000003208DF80200AA
:1016600001200190684600F03FF84FF4E06000F080
:1016700073F834208DF8000004208DF8020001205A
:101680000190684600F030F81C208DF80000002022
:101690008DF8010005208DF80200012001906846B8
:1016A00000F022F81D208DF8000000208DF80100C8
:1016B00006208DF8020001200190684600F014F821
:1016C0004FF4C06000F048F803208DF800000120BE
:1016D0008DF8010007208DF8020001200190684676
:1016E00000F002F81CBD000070B5002100230F229D
:1016F000446804B3154C246804F4E064C4F5E06461
:10170000210AC1F10403CA40447804FA03F1847841
:101710001440214309010E4C0678A155047804F0C9
:101720001F050124AC4005786D11AD0005F1E025E1
:10173000C5F8004109E0047804F01F050124AC401D
:10174000044D0678761145F8264070BD0CED00E09A
:1017500000E400E080E100E002490143024A116038
:10176000704700000000FA050CED00E0024A0A4054
:101770000243024B1A60704780FFFF1F08ED00E034
:101780007FB5044601256020ADF800000120ADF8CA
:1017900002000020ADF8080005FB04F080B2ADF8AF
:1017A00006006946094800F0F1FC0821074800F0EE
:1017B0002BFD0121054800F0ADFC0121034800F09C
:1017C000B8FC0121014800F0C0FC7FBD002C0140A5
:1017D000704700001CB50EA1002000F079F91CA391
:1017E0001EA221A1002000F073F92648C0782549E7
:1017F0008978CDE9001023484378027822A100209F
:1018000000F066F902A1002000F062F91CBD0000A2
:101810002A2A2A2A2A2A2A2A2A2A2A2A2A2A2A2A28
:101820002A2A2A2A2A2A2A2A2A2A2A2A2A2A2A2A18
:101830002A2A2A2A2A2A2A2A2A2A2A2A2A2A2A2A08
:101840002A2A2A2A2A2A2A2A2A2A2A2A2A0D0A005F
:1018500032303A33303A33300000000041707220A9
:1018600032362032303138002A2052656C6561737F
:10187000652044617465203A2025732025730D0A84
:1018800000000000000000202A2046572052657604
:101890003A2025642E25642E25642E25640D0A0029
:1018A00029B1064AD2690243044BDA6104E0034AD3
:1018B000D2698243014BDA61704700000010024098
:1018C00029B1064A92690243044B9A6104E0034A33
:1018D00092698243014B9A617047000000100240F8
:1018E00030B500210022002400232D4D6D6805F045
:1018F0000C0121B1042905D0082923D105E0294D87
:10190000056022E0274D05601FE0254D6D6805F458
:101910007012234D6D6805F48034022505EB924268
:101920001CB9214D554305600BE01D4D6D6805F454
:1019300000351DB11C4D5543056002E0194D55435E
:10194000056002E0174D056000BF00BF144D6D68D3
:1019500005F0F0010909154D6B5C0568DD40456037
:101960000F4D6D6805F4E061090A104D6B5C456828
:10197000DD4085600A4D6D6805F46051C90A0B4D64
:101980006B5C4568DD40C560054D6D6805F4404100
:10199000890B074D6B5CC568B5FBF3F5056130BD80
:1019A0000010024000127A0000093D001C010020D6
:1019B0002C010020024909888143014A11807047A7
:1019C00004280040002103480188001F008841EAE4
:1019D000004070471C28004001460020064A12883B
:1019E00002EA0100044A121F12880A4012B108B12B
:1019F000012000E0002070470428004010B50120BD
:101A0000FFF7EAFF30B10120FFF7D4FFFFF7DAFF5D
:101A10000149086010BD0000080000202DE9F041D8
:101A200004460D46164600BF0748007808B900F086
:101A30007DFE00BF32462946204600F007F80746E3
:101A40003846BDE8F0810000800700202DE9F0470E
:101A5000074688461646C24607EB47011B4800EB7F
:101A6000C109D9F8140020B1012811D0022826D1CB
:101A70001EE0484600F092FE0546B54201D2002421
:101A800005E0344632465146484600F0DCFF18E097
:101A9000484600F083FE0546B54201D2284600E0E4
:101AA0003046044622465146484600F0CCFF08E046
:101AB00032465146484600F08DFF044601E00024BE
:101AC00000BF00BF2046BDE8F08700009807002057
:101AD0000FB438B5044606A800906A46204605991A
:101AE00000F003F838BC5DF814FB2DE9F04F99B015
:101AF00082460D46144603A81490402015900020FD
:101B00001690CDF860A0179000BF2E786D1C06B916
:101B1000DDE0252E79D100274FF0010900BF2E7896
:101B2000232E12D02B2E0CD02D2E02D0302E10D1E1
:101B300003E047F001076D1C0EE047F002076D1C43
:101B40000AE047F004076D1C06E047F008076D1C2B
:101B500002E04FF0000900BF00BFB9F1000FDED175
:101B60004FF0000800BF2E78302E01DB392E00DD4B
:101B700007E06D1CA6F1300008EB880100EB41087E
:101B8000F1E700BF002013902E782E2E12D16D1C8D
:101B900000BF2E78302E01DB392E00DD09E06D1CF0
:101BA000A6F13000139901EB810100EB4100139085
:101BB000EFE700BF2E7800BF6C2E01D0682E02D157
:101BC0002E786D1C00E000E0F6E700BF702E5DD0BF
:101BD00008DC252E6AD0582E35D0632E09D0642E0D
:101BE00069D113E0732E3CD0752E1DD0782E62D1B2
:101BF00028E02168081D2060D1F8009009F0FF0B53
:101C0000594614A800F0C4FE56E058E02168081DAB
:101C10002060D1F80090CDE900870A22494614A837
:101C2000139B00F0C9FD47E02168081D2060D1F832
:101C30000090CDE900870A22494614A8139B00F0C2
:101C400031FE39E000BF2168081D2060D1F8009006
:101C5000CDE900871022494614A8139B00F022FE0C
:101C60002AE02168081D2060D1F800B000BF9BF871
:101C700000600BF1010B06B906E0314614A800F034
:101C800087FE17980028F2DA00BF15E02168081DCA
:101C90002060D1F80090002008210B461022CDE9E9
:101CA0000010494614A800F0FDFD05E0252114A808
:101CB00000F06EFE00E000BF00BF6D1C03E0314687
:101CC00014A800F065FE17980028BFF61EAF00BFED
:101CD000179800280ADD169820B103A95046169AD5
:101CE000FFF79CFEDDE9161008441790179819B00D
:101CF000BDE8F08F704770B5A2B005460E46144699
:101D00000020209080216846FEF747FA3E208DF89B
:101D100084008DF885508DF886409DF885009DF8EB
:101D200086100844C0B28DF88700002007E0315CBF
:101D30009DF880201144C9B22091411CC8B2A04234
:101D4000F5DB219800902246314601A8FEF70CFAF7
:101D500001A89DF880100155621D6946022001F01E
:101D60004FFF022001F0E4FE22B070BD00280ADD22
:101D7000102808DCB1F5006F01DD4FF40061421E50
:101D8000014B23F8121070472A02002010B53B487F
:101D9000006800286FD13A480088B0F52C7F15D133
:101DA000374840683749884205DB35484068401E5F
:101DB000334948600AE03348314948604FF4806055
:101DC0000880084601880220FFF7D0FF2C480088D1
:101DD000B0F5AA6F17D12A48406842F210718842C4
:101DE00005DC27484068401C254948600BE042F26A
:101DF0001070234948604FF48060088008460188CD
:101E00000220FFF7B3FF20480088B0F52C7F15D1E2
:101E10001D4840681B49884205DB1B484068401E3E
:101E2000194948600AE01748174948604FF4806034
:101E30000880084601880420FFF798FF12480088B0
:101E4000B0F5AA6F17D11048406842F2107188426D
:101E500005DC0D484068401C0B4948600BE042F22D
:101E60001070094948604FF4806008800846018876
:101E70000420FFF77BFF01F08FFF10BD70000020F2
:101E80007D000020F0D8FFFF7500002000B54FF462
:101E900080600749088007490880054801880220BA
:101EA000FFF764FF034801880420FFF75FFF00BDD0
:101EB0007D0000207500002010B5012406E04FF4DD
:101EC00080612046FFF752FF601CC4B2102CF6DD83
:101ED00001210846FEF71EFE01210220FEF71AFE30
:101EE00010BD10B5012406E04FF480612046FFF7D5
:101EF0003DFF601CC4B2102CF6DD01210846FEF740
:101F000009FE01210220FEF705FE10BD10B500F00C
:101F100001F810BD0CB50020019000903348006816
:101F200040F480303149086000BF3048006800F458
:101F3000003000900198401C0190009818B9019859
:101F4000B0F5A06FF1D12948006800F4003010B15D
:101F50000120009001E0002000900098012843D16A
:101F60002348006840F010002149086008460068D6
:101F700020F0030008600846006840F00200086096
:101F80001A48406819494860084640684860084651
:101F9000406840F4806048600846406820F47C1047
:101FA00048600846406840F4E81048600846006809
:101FB00040F08070086000BF0C48006800F00070BE
:101FC0000028F9D00948406820F00300074948601C
:101FD0000846406840F00200486000BF034840687F
:101FE00000F00C000828F9D10CBD000000100240E0
:101FF0000020024010B504480068401C02490860F7
:1020000000F004F810BD00000400002010B500240A
:1020100006E0124901EBC40001F06CFB601CC4B285
:10202000042CF6DB0E480068401C0D490860084689
:1020300000686FF00041884202D100200849086022
:1020400008480088401C80B20649088040F6B83134
:10205000884202DB00200349088010BD8402002072
:10206000140100201A01002010B51348006840F048
:1020700001001149086008464068104908400E49AF
:102080004860084600680E4908400B490860084649
:10209000006820F4802008600846406820F4FE00B4
:1020A00048604FF41F008860FFF730FF4FF000607A
:1020B0000449086010BD0000001002400000FFF855
:1020C000FFFFF6FE08ED00E03EB5002400BF4FF430
:1020D000FA60ADF80400ADF800400020ADF806004D
:1020E000ADF802006946024800F09CF83EBD0000D1
:1020F000002C014010B50121880700F035F840B1EF
:1021000000214FF0804000F014F80121880700F012
:102110000DF810BD21B1028842F08002028004E077
:1021200002884FF67F731A4002807047CA430282CA
:10213000704721B1028842F00102028004E0028867
:102140004FF6FE731A400280704731B1B0F8442058
:1021500042F40042A0F8442005E0B0F84420C2F365
:102160000E02A0F84420704730B50246002000233C
:102170000024158A05EA0103958905EA010413B1D3
:102180000CB1012000E0002030BD000070B500223D
:1021900000230024058C4EF6FF7635400584038C21
:1021A0008488828B48F6FF752A404FF6FF452A4007
:1021B0000D884FF6FF7606EA05252A434DF6FF7592
:1021C0002B400D8906EA05352B434D8806EA053577
:1021D0002B430B4DA84202D00A4DA84208D14BF622
:1021E000FF752C408D894FF6FF7606EA85152C4346
:1021F00084808283CD88A0F84050038470BD0000A5
:10220000002C0140003401400A460021818B4FF22E
:10221000FF7319404FF6FF7303EA022319438183CA
:1022200070470000002202881D4B98420ED01D4BC3
:1022300098420BD0B0F1804F08D01B4B984205D08C
:102240001A4B984202D01A4B984204D14FF68F7322
:102250001A404B881A43174B984207D0164B9842A6
:1022600004D04FF6FF431A40CB881A4302808B8874
:1022700083850B8803850A4B98420BD0094B984203
:1022800008D00E4B984205D00D4B984202D00D4B12
:10229000984201D10B7A03860123838270470000A4
:1022A000002C0140003401400004004000080040C0
:1022B000000C0040001000400014004000400140AD
:1022C000004401400048014010B540F225510F483C
:1022D00000F0E4F838B10D4800F09CF9C4B2214692
:1022E000032001F0AFFB40F22441084800F0D6F88B
:1022F00050B10121064880F83D1004480088C4B25E
:102300000248001D0088C4B210BD0000004C00400F
:10231000D402002010B540F225510E4800F0BEF85E
:1023200038B10C4800F076F9C4B22146042001F01F
:1023300089FB40F22441074800F0B0F848B1012180
:10234000054880F84D1003480088C4B201488088D1
:10235000C4B210BD00500040D402002010B540F2BD
:102360002551134800F09AF860B1114800F052F975
:10237000C4B22146002001F065FB22460DA10020D9
:10238000FFF7A6FB40F22441094800F087F868B146
:1023900001200A49487306480088C4B20448001D59
:1023A0000088C4B206A10020FFF792FB10BD000018
:1023B000003801402530325820000000D4020020AF
:1023C000250D0A0010B540F225510E4800F066F8C0
:1023D00038B10C4800F01EF9C4B22146012001F0CA
:1023E00031FB40F22441074800F058F848B1012180
:1023F0000548417703480088C4B20248001D0088A0
:10240000C4B210BD00440040D402002010B540F218
:1024100025510F4800F042F838B10D4800F0FAF8A5
:10242000C4B22146022001F00DFB40F224410848CD
:1024300000F034F850B10121064880F82D1004480E
:102440000088C4B20248001D0088C4B210BD00005C
:1024500000480040D402002001F40072B2F5007F71
:1024600000D100BFCA430280704721B1828942F483
:102470000052828104E082894DF6FF731A40828106
:10248000704702460020B1F5007F00D100BF1388DD
:102490000B400BB1012000E00020704770B50246F0
:1024A000002400230025002040F66A16B14200D126
:1024B00000BFC1F3421501F01F03012606FA03F322
:1024C000012D02D19689334006E0022D02D1168AF1
:1024D000334001E0968A33400C12012606FA04F4D8
:1024E0001688344013B10CB1012000E0002070BD0B
:1024F000F0B50346002400260025002040F66A17A8
:10250000B94200D100BF1846C1F3421401F01F06C2
:10251000012707FA06F5012C01D10C3004E0022C4A
:1025200001D1103000E014301AB107682F43076062
:1025300002E00768AF430760F0BD00002DE9F047F7
:1025400086B005460E460024A24600BFA1460027DD
:10255000B08900B100BF2F462C8A4CF6FF700440B2
:10256000F08804432C82AC894EF6F3100440B08806
:1025700031890843718908430443AC81AC8A4FF622
:10258000FF400440B0890443AC8201A8FFF7A8F9DA
:102590001F48874202D1DDF810A001E0DDF80CA051
:1025A000A88900F4004040B10AEBCA0000EB0A1011
:1025B00031684900B0FBF1F807E00AEBCA0000EB14
:1025C0000A1031688900B0FBF1F86420B8FBF0F024
:1025D00004012009642101FB1089A88900F400404E
:1025E00040B1322000EBC900B0FBF1F000F0070071
:1025F000044308E0322000EB09106421B0FBF1F045
:1026000000F00F0004432C8106B0BDE8F087000005
:102610000038014001468888C0F308007047C1F3C4
:1026200008028280704700001FB5002000900190D2
:1026300002900390FF208DF8000001208DF801002A
:1026400033208DF802008DF803001E48408A000AEE
:102650008DF804001B48807C8DF805001948808C9B
:10266000000A8DF80600174890F824008DF807003E
:102670001448C08A000A8DF808001248807D8DF841
:1026800009001048008D000A8DF80A000D4890F8E6
:1026900028008DF80B00012009E09DF80C101DF8B2
:1026A00000201144C9B28DF80C10411CC8B20C288E
:1026B000F3DB0D226946002001F0A2FA002001F0B0
:1026C00037FA1FBD4E0200201CB5044600200090C2
:1026D0000190FF208DF8000001208DF80100882076
:1026E0008DF802008DF803008DF80440012009E008
:1026F0009DF805101DF800201144C9B28DF8051091
:10270000411CC8B20528F3DB06226946002001F00F
:1027100077FA002001F00CFA1CBD00BFFEE710B5EF
:1027200004462046FFF72CF810BD000010B5124CEF
:1027300002202061606111A0A0611349E1614FF4A2
:10274000806121620021A1626162E1620BA0A0644C
:102750000E49E164102121650021A1656165E165F3
:102760000BA1E01DFDF724FD0AA12046FDF720FD89
:102770002020A07110BD0000800700205465726DFC
:10278000696E616C0000000070030020700700207B
:1027900052545400534547474552000010B5014676
:1027A0000A69CB689A4204D88C68641EE41AA0189F
:1027B00001E0D41A601E10BD2DE9FC5F06460F46ED
:1027C00092469846DDE90C45002F01DA784200E098
:1027D000384683464FF0010903E09BFBFAFB09F101
:1027E0000109D345F9DAC84500D9C14634B1002FF3
:1027F00003DB05F00400042800D1641E05F002008C
:1028000010B1B8F1000F11D005F0010070B96CB132
:1028100008E0641E2021304600F0BAF8F068002875
:1028200000DA02E00CB1A145F3D300BFF068002844
:1028300036DB002F05DA7F422D21304600F0A8F864
:1028400007E005F00400042803D12B21304600F0F6
:102850009FF8F068002823DB05F00200022814D15D
:1028600005F0010088B9B8F1000F0ED16CB108E095
:10287000641E3021304600F08BF8F068002800DA42
:1028800002E00CB1A145F3D300BFF068002807DBDC
:102890004346524639463046CDE9004500F002F83D
:1028A000BDE8FC9F2DE9FC5F8046894615461E4623
:1028B0000C9CCDF804900127BB4605E00198B0FBC5
:1028C000F5F001900BF1010B0198A842F6D25E459C
:1028D00000D9B3460D9800F00100D0B9CCB10D98E5
:1028E00000F00200022803D116B93020009001E068
:1028F0002020009009E0641E4046009900F048F84E
:10290000D8F80C00002800DA02E00CB1A345F2D39D
:1029100000BFD8F80C00002835DB09E0012E01D9F2
:10292000761E04E0B9FBF7FAAA4500D201E06F4336
:10293000F4E700BF00BFB9FBF7FA0AFB1799134889
:1029400010F80A10404600F023F8D8F80C000028D0
:1029500000DA03E0B7FBF5F7002FECD100BF0D98CC
:1029600000F0010078B174B109E0641E20214046F6
:1029700000F00EF8D8F80C00002800DA02E00CB1E4
:10298000A345F2D300BFBDE8FC9F0000783E0008DD
:1029900070B504460E46A568681C6168814206D37E
:1029A00020684655681CA060E068401CE060D4E9DF
:1029B000011088420DD1A26821682069FFF72EF826
:1029C000A168884203D04FF0FF30E06001E00020B2
:1029D000A06070BD2DE9F0470446894617464FF0C8
:1029E000000AE56800BFD4F81080A84503D9A8EB19
:1029F0000500461E04E0A5EB0800401CA1680E1A65
:102A0000A068401BB04201D9304601E0A068401BDD
:102A10000646BE4201D2304600E0384606466168AE
:102A2000481932464946FDF79FFBB244B144BF1BEB
:102A30003544A068A84200D10025E560002FD2D11E
:102A40005046BDE8F0872DE9F04704468946154613
:102A5000E668A068871BAF4208D9616888192A46D2
:102A60004946FDF781FB7019E06010E0B8466168E7
:102A7000881942464946FDF777FBA5EB070809EBA5
:102A8000070142466068FDF76FFBC4F80C80BDE8A3
:102A9000F08700000FB4054B10B503A9044A029853
:102AA00000F0E0F810BC5DF814FB00000D370008E2
:102AB000300100200FB4084B10B504A902AA0398F6
:102AC00000F0D0F8044602A9002000F062FC204685
:102AD00010BC5DF814FB00009333000802E008C846
:102AE000121F08C1002AFAD170477047002001E088
:102AF00001C1121F002AFBD1704780F31088704774
:102B00002DE9FF5FDDE90220010DDDF838B0024359
:102B100018D044F61050A1F2FF3141430D140F9824
:102B2000012820D0A5EB0B00401C5FEA000A4FF003
:102B30000004474EDFF81C91A046504616D5CAF156
:102B4000000728E00F98012443A2012808D00021A3
:102B500000980F9BC0E90021C0E90243BDE8FF9F38
:102B60006FEA0B01F4E7CBF10000DEE7074612E065
:102B7000F80707D02246334640464946FDF721FB79
:102B8000804689462246334610461946FDF719FB12
:102B900004460E467F10002FEAD1DDE90201BAF1AA
:102BA000000F42464B4602DAFDF70BFB01E0FDF752
:102BB00034FD04460E460022284BFDF7B5FD03D830
:102BC0004FF0FF30014607E00022254B20463146FA
:102BD000FDF77CFCFDF790FD102409E0002C0ADBDA
:102BE0000A220023FDF7ADFB019B30321A55641E0B
:102BF00050EA0102F2D1641C019AC4F11103144499
:102C00000F9A012A03D0012208430DD10AE008439C
:102C100004D000204FF0110B0F9080E7A3EB0B05C1
:102C20006D1E0DE05B4504DD4FF0000205F101056E
:102C300004E003DA4FF00002A5F10105002AECD010
:102C400000980F99C0E90231C0E9004586E700000D
:102C5000000024400000F03F300000000000F0437E
:102C60000000E03F2DE9FF4F95B09B4689460646A0
:102C700000250FE2252877D100242746F84A0121B4
:102C8000059400E0044316F8013F203B01FA03F0ED
:102C90001042F7D130782A2811D06FF02F03307806
:102CA000A0F13002092A16D8059A44F0020402EB7A
:102CB000820203EB42021044761C0590EFE759F8BC
:102CC000042B0592002A03DA504244F40054059084
:102CD00044F00204761C30782E2816D116F8010F25
:102CE00044F004042A280DD06FF02F023078A0F1B0
:102CF0003003092B09D807EB870302EB4303C718FE
:102D0000761CF3E759F8047B761C30786C280FD0DA
:102D100006DC4C2817D068280DD06A2814D104E0AE
:102D2000742810D07A280FD10DE044F400140AE082
:102D300044F4801401E044F440147278824202D1D9
:102D400004F58014761C761C307866280BD013DCD2
:102D5000582877D009DC002875D04528F6D04628B9
:102D6000F4D047281AD19DE118E0632835D06428B3
:102D700079D0652812D195E1702873D008DC6728D6
:102D8000F1D069286FD06E280DD06F2806D1B5E03C
:102D900073282CD0752875D0782874D05A46179986
:102DA00090476D1C75E1C4F30250022809D0032836
:102DB0000DD0D9F8001004280DD00D6009F10409D8
:102DC00067E1D9F80010EA17C1E90052F6E7D9F82F
:102DD00000100D80F2E70D70F0E719F8041B8DF874
:102DE000001000208DF80100EA46012003E059F8A8
:102DF00004AB4FF0FF3061074FF0000102D40DE04B
:102E000008F101018846B9420FDA8045F8DB1AF86B
:102E100008100029F4D108E008F101018846814238
:102E2000FADB1AF808100029F6D105985B46A0EBEA
:102E3000080721463846179A00F094FA284400EB18
:102E4000080507E04DE029E10DE01AF8010B5A46AC
:102E500017999047B8F10108F7D25B4621463846EA
:102E6000179A13E142E00A220092C4F302524FF093
:102E7000000A022A08D059F804CB032A4FEAEC7161
:102E80000AD00DE029E02AE009F1070121F007024C
:102E9000F2E802C1914609E00FFA8CFC4FEAEC71AE
:102EA000042A03D14FFA8CFC4FEAEC71002907DAAF
:102EB0000A460021DCF1000C61EB02012D2202E048
:102EC000220504D52B228DF80420012203E0E2071D
:102ED00001D02022F7E7904659E00A2102E01022B3
:102EE0000DE010214FF0000A00910BE010224FF08E
:102EF000000A44F004040827009203E008224FF07F
:102F0000000A0092C4F30252022A05D059F804CBF9
:102F10000021032A08D009E009F1070121F0070286
:102F2000F2E802C1914605E01FFA8CFC042A01D1A7
:102F30000CF0FF0C4FF00008220728D5702806D0AF
:102F4000009B83F0100353EA0A0305D00EE04022F1
:102F50008DF80420012208E05CEA010206D030224C
:102F60008DF804208DF8050002229046009B83F026
:102F7000080353EA0A030AD15CEA010201D162079D
:102F800005D530228DF804204FF001087F1E582807
:102F900004D034A003900EA802900DE036A0F9E70B
:102FA00053466046009AFDF7CCF984460398825C4C
:102FB0000298401E029002705CEA0100F0D1029873
:102FC00006A9081A00F1200A600702D524F480340B
:102FD00000E00127574502DDA7EB0A0000E00020D2
:102FE00000EB0A01009005984144401A0590E00367
:102FF00006D45B462146179A059800F0B3F90544BC
:10300000002706E001A85A46C05D179990476D1C3D
:103010007F1C4745F6DBE0030CD55B462146179A3B
:10302000059800F09FF9054404E030205A461799AE
:1030300090476D1C0099481E00900029F5DC08E0BF
:10304000029802995A460078491C029117999047B4
:103050006D1CBAF10001AAF1010AF1DC65E1000082
:10306000092801003031323334353637383961625E
:103070006364656600000000303132333435363722
:1030800038394142434445460000000000F058F9F9
:103090000544761C307800287FF4ECAD19B0284642
:1030A000BDE8F08F620700D4062709F1070222F07D
:1030B000070CFCE80223E14603F000485FEA080C35
:1030C00002D00FF2702C0DE05FEA045C02D50FF223
:1030D000682C07E05FEAC47C02D00FF2602C01E0AC
:1030E000AFF2700C4FF0FF3823F00043CDF850C022
:1030F00065280CD006DC452809D046281DD0472875
:103100003DD13DE0662818D067287ED138E0002107
:10311000112F01DB112000E0781CCDE9000106A988
:103120000EA8FFF7EDFCDDE90F010E9A03910021D7
:10313000009207F1010A04914DE04FF00040009722
:10314000CDE9011006A90EA8FFF7DAFCDDE90F02B0
:1031500003920E9B11990022DDF80CA000930492BB
:1031600011B9791C00EB010AB7EB0A0004D4C0F1D5
:10317000FF3007F1010A0490AAEB0700019044E038
:10318000012F00DA01270021112F01DD112000E0BD
:103190003846CDE9000106A90EA8FFF7B1FCDDE92C
:1031A0000F010E9A0391002104910092BA46210763
:1031B0000CD40399514500DA8A46BAF1010F05DDB6
:1031C000009AAAF10101515C302908D0B84202DA14
:1031D00010F1040F06DA0121CDE9011015E0AAF182
:1031E0000101E9E7002805DC049901440491AAEBF8
:1031F000000102E0411C514500DD8A460499401A55
:10320000401C01904FF000400290200704D4019828
:10321000504501DBCDF8048000208DF84F00029866
:103220000DF14F07B0F1004F25D02B200E900298E2
:103230004FF0020800280CDA404202902D200E9038
:1032400007E00A210298FDF766F83031029007F88E
:10325000011DB8F10001A8F10108F2DC0298002874
:10326000EFD1791E0E980870307800F0200040F001
:10327000450007F8020D12A8C01B00F107081498BA
:10328000007800B1012000EB0A01019801EBE07128
:1032900005984144401A401E0590E00306D45B4661
:1032A0002146179A059800F05DF8054414980078B7
:1032B00018B15A46179990476D1CE00324D55B4618
:1032C0002146179A059800F04DF805441CE0049833
:1032D000002807DBDDE90301884203DD0098405C3C
:1032E000179901E0179930205A469047049805F144
:1032F0000105401C04900198401E019004D12E202D
:103300005A46179990476D1CBAF10001AAF1010ABB
:10331000DDDC05E017F8010B5A46179990476D1C44
:10332000B8F10001A8F10108F4DC5B462146179AC8
:103330000598ABE62D0000002B00000020000000E7
:103340002DE9F041044600251E461746880404D4A2
:1033500005E039462020B0476D1C641EF9D528468B
:10336000BDE8F0812DE9F041044600251E46904657
:10337000C80301D5302700E02027880404D505E0E4
:1033800041463846B0476D1C641EF9D52846BDE855
:10339000F0810A68531C0B601070704710B504462A
:1033A000012C00D802240120FFF7A7FB0748046086
:1033B000002006490871FFF7A0FB04E003480079EC
:1033C000012800D100E0F9E700BF10BD8402002011
:1033D00070B5002408E000201A4941F8340001EBE0
:1033E000C4010871601CC4B2042CF4DB1648FEF75B
:1033F00077FA154840684FF47A72B0FBF2F1B1F1F8
:10340000807F00D31DE021F07F40401E4FF0E0227E
:10341000506150170022002807DA13071E0E0B4BCD
:1034200000F00F052D1F5E5503E013071D0E084B1E
:103430001D5400BF00204FF0E02290610720106172
:1034400000BF70BD84020020A402002018ED00E03F
:1034500000E400E000B587B001210520FEF730FA56
:1034600001218803FEF72CFA4FF40070ADF810002C
:10347000182006900320059004A91C48FDF7D4FDF0
:103480004FF48060ADF810000420069004A917489E
:10349000FDF7CAFD4FF4165000900020ADF804006F
:1034A000ADF80600ADF80800ADF80C000C20ADF842
:1034B0000A0069460E48FFF741F8012240F2255103
:1034C0000B48FFF715F8012240F224410848FFF7A6
:1034D0000FF801210648FEF7C8FF0520FFF75EFF41
:1034E00040210348FEF7B8FF07B000BD00080140C7
:1034F0000038014000B587B001210520FEF7E0F952
:1035000001214804FEF7CCF90420ADF81000182082
:1035100006900320059004A91F48FDF785FD0820AB
:10352000ADF810000420069004A91B48FDF77CFDAF
:1035300004A91948FDF778FD184800904FF4805011
:10354000ADF804004000ADF80600C010ADF808006A
:103550000020ADF80C000C20ADF80A0069461048B8
:10356000FEF7ECFF012240F225510D48FEF7C0FFA7
:10357000012240F224410A48FEF7BAFF012108481F
:10358000FEF773FF0520FFF709FF40210448FEF70F
:1035900063FF07B000BD000000080140A0860100E5
:1035A0000044004000B587B001210920FEF788F9EA
:1035B00001218804FEF774F94FF48060ADF8100023
:1035C000182006900320059004A91E48FDF72CFD45
:1035D0004FF40060ADF810000420069004A91948CB
:1035E000FDF722FD04A91748FDF71EFD4FF4E13059
:1035F00000900020ADF80400ADF80600ADF808001A
:10360000ADF80C000C20ADF80A0069460E48FEF734
:1036100095FF012240F225510B48FEF769FF012278
:1036200040F224410848FEF763FF01210648FEF7F7
:103630001CFF0520FFF7B2FE40210348FEF70CFFF8
:1036400007B000BD000C01400048004000B587B045
:1036500001211120FEF734F90121C804FEF720F9F9
:103660004FF48060ADF810001820069003200590FC
:1036700004A91E48FDF7D8FC4FF40060ADF8100017
:103680000420069004A91948FDF7CEFC04A91748A8
:10369000FDF7CAFC4FF4165000900020ADF804006E
:1036A000ADF80600ADF80800ADF80C000C20ADF840
:1036B0000A0069460E48FEF741FF012240F22551FB
:1036C0000B48FEF715FF012240F224410848FEF79F
:1036D0000FFF01210648FEF7C8FE0520FFF75EFE3A
:1036E00040210348FEF7B8FE07B000BD00100140BE
:1036F000004C0040017939B9016829B10168491EBF
:10370000016009B9012101717047000070B50446DC
:103710000D46E1B20548FEF782FF00BF4021034895
:10372000FEF7AFFE0028F9D0204670BD00380140FA
:10373000014800687047000014010020002400F0D8
:103740008DF8FDF705FF2648FDF760FD01212548AE
:10375000FDF700FDC820FFF721FEFDF758FF01210E
:103760002048FDF7F5FCFEF7A7FBFEF733F836E03F
:10377000FFF7DEFF6421B0FBF1F201FB120070BB2A
:10378000641CFDF7D7F9FDF77FFDFEF7FFFAFDF7A3
:10379000B9F80A20B4FBF0F100FB1140E0B9202198
:1037A0001048FDF7CCFCC0F101052A4620210D4848
:1037B000FDF7D2FC0C480078401C0B4908700B4800
:1037C0000078012808D108460078052804DBFDF7B9
:1037D000C8FC0520044908700120FFF7DFFDC7E79A
:1037E0003C010020000C01401200002011000020CC
:1037F000F0B50B30154D20F007010024144A0FE0FE
:1038000003688B420BD38B4205D95E1A4318476875
:10381000C3E9006700E04368136002C004E0021DD2
:1038200010680028ECD12046002802D1286808B191
:103830000020F0BD064A07481060074A121A22F01D
:103840000702C0E9002401202860D7E738010020E2
:1038500034010020FC070020F847002010B50124A7
:1038600052E04FF48070414901EB041108800020C0
:103870003E4901EB041188803C4901EB041148806A
:103880003A4901EB04110873384901EB04114873FC
:103890004FF48070FFF7ACFF344901EB04118860EE
:1038A000324800EB0410806828B9022130A0FFF7ED
:1038B000F1F8022010BD802004EB4401374A22F8C1
:1038C0002100002004EB440102EB8101888004EB1D
:1038D000440102EB810148808020FFF789FF04EB5F
:1038E00044012E4A02EB8101886004EB440011463A
:1038F00001EB8000806828B9022129A0FFF7CAF8EF
:103900000220D7E7601CC4B2042CAADB4FF480600D
:1039100016490880002088804880087348734FF457
:103920008060FFF765FF114988600846806828B904
:1039300000210FA0FFF7AEF80220BBE74FF4807024
:10394000164908800020888048804FF48070FFF777
:103950004FFF124988600846806828B9002110A0EE
:10396000FFF798F80220A5E70020A3E7D402002083
:1039700055617274427566496E69743A4D61636C43
:103980006C6F632072656164206275666665722083
:103990002564206661696C730D0A00002403002011
:1039A00055617274427566496E69743A4D61636C13
:1039B0006C6F632073656E64206275666665722045
:1039C0002564206661696C730D0A000070B50546B8
:1039D000284600F01BF8064600BF0A20FFF7DEFC71
:1039E000284600F013F80446B44200D02646A6420A
:1039F000F3D10020044901EB05118880024901EB55
:103A00000511488070BD0000D402002010B50246A8
:103A100000200B4B03EB0211052A00D310BD4B888D
:103A20008C88A34204DB4B888C881B1B98B205E072
:103A30004B880C8823448C881B1B98B200BFEDE791
:103A4000D402002010B50246074B03EB0210448855
:103A50008368195543885B1C438043880488A342CC
:103A600001D10023438010BDD40200202DE9F04194
:103A700007460E461546234800EB07142088A84247
:103A800002DD0EB1052F05D31FA0FFF703F80920B3
:103A9000BDE8F0816088A188884201D10320F7E762
:103AA000A08828442188884207DCA288A068811861
:103AB0002A463046FCF758FB16E02088A388C21A35
:103AC000A068C1183046FCF74FFBA3882B44B4F81C
:103AD00000C0A3EB0C020CEB0603B4F804C0A3EB8C
:103AE0000C00A168FCF740FBA0882844A080A088B7
:103AF0002188884203DBA0882188401AA08000200A
:103B0000C6E70000D40200207561727452656164DA
:103B10003A20506F72743A256420696E7075742073
:103B200070617261206572726F720D0A0000000090
:103B300070B50446052C0ED2DFE804F00305070932
:103B40000B00294D08E0294D06E0294D04E0294DE0
:103B500002E0294D00E000BF00BF00BF04EB4400BD
:103B6000264A02EB8000806804EB4402234B03EBFF
:103B700082029288815C2846FEF751FD00BF4021F9
:103B80002846FEF77EFC0028F9D004EB44001B49D0
:103B900001EB80008088401C04EB4401174A02EBD3
:103BA0008101888004EB4400114601EB800080888D
:103BB00004EB440132F82110884205D1002004EBC7
:103BC000440102EB8101888004EB44000B4901EBC6
:103BD0008000808804EB4401084A02EB8101498897
:103BE0008842BBD1002070BD003801400044004035
:103BF00000480040004C00400050004024030020DA
:103C00002DE9F04104460E46154604EB44005649A2
:103C100031F82000A84202DD0EB1052C05D353A0D7
:103C2000FEF738FF0920BDE8F08104EB44004E495F
:103C300001EB8000808804EB44014B4A02EB8101D8
:103C40004988884201DA0A20EDE704EB440046493E
:103C500031F8200004EB4401434A02EB810149881A
:103C6000401AA8422FDB04EB440102EB8101896872
:103C700004EB44023C4B03EB8202528888182A462C
:103C80003146FCF771FA04EB4400374901EB800040
:103C90004088284404EB4401334A02EB8101488008
:103CA00004EB4400114601EB8000408804EB440122
:103CB00032F82110884254D1002004EB440102EB79
:103CC000810148804DE004EB4401274B33F821107B
:103CD00004EB4403244F07EB83035B88CA1A04EB0D
:103CE00044013B4603EB8101896804EB440307EB85
:103CF00083035B88C8183146FCF736FA04EB4403AB
:103D000037F8233004EB4407DFF85CC00CEB87077F
:103D10007F88DB1BEA1A04EB4403674637F823303D
:103D200004EB44070CEB87077F88DB1B991904EB36
:103D30004403674607EB83039868FCF715FA04EB26
:103D40004400394601EB80004088284404EB4401DC
:103D50003A4632F82110401A04EB440102EB81018B
:103D6000488000205FE70000240300207561727422
:103D700057726974654275666665723A20496E705D
:103D8000757420706172616D657465722065727200
:103D90006F720D0A0000000070B5012404E00025D8
:103DA000314E3555651CECB2182CF8DB0023002091
:103DB0000121002200241DE02C4D35F8135001266E
:103DC0008640354035B1284D6D5C0126964035431F
:103DD000254E7554551CEAB2451CE8B2082A02D19A
:103DE00000224D1CE9B20B2802D100205D1CEBB271
:103DF000651CECB2B02CDFDB1D4D2D8C012D05D1E7
:103E0000194DED7D45F00105174EF575184D6D8C7A
:103E1000012D05D1144DED7D45F00205124EF575CD
:103E2000144D2D68012D05D10F4DED7D45F0040594
:103E30000D4EF5750F4D2D68022D0AD10A4DED7D01
:103E400045F00405084EF5753546ED7D45F008054D
:103E5000F5750F200449087019220120FFF7D0FEE4
:103E60000120FFF765FE70BDEC0100202A02002052
:103E700006020020880000203031323334353637D6
:103E80003839414243444546A83E0008000000201E
:103E90003C010000DE070008643F00083C010020F0
:103EA000BC660000EC2A00081202E20212010016B1
:103EB0001074657374206A6C696E6B20737069206E
:103EC000666C6173682130083E1F0625011F013AA8
:103ED000210B2A1E47490B421F4A201641141F3E40
:103EE0004D124D133E6D926DDA040801181039FF22
:103EF0001722023428902CD82F7D32BD34B336508F
:103F000038A339B73AA53B6D3C043D813DF23D4AAB
:103F10003E953EE03E063F383F5E3F833FA93FCEA1
:103F20003FDA3FE63FF23F1640810104072AFF06D1
:103F30003A02062F03FF810904470B3A475913FF42
:103F40000112073B676F073B666E073B656D07C352
:103F5000646C2D0102030404C00906070809020469
:043F6000060800004F
:0400000508000131BD
:00000001FF
